{
  "txid": "ea1840d40c5a19a80f8463fbfb5c70cfeeae616eb56ef626b8eed2bd603ec8aa",
  "hash": "ea1840d40c5a19a80f8463fbfb5c70cfeeae616eb56ef626b8eed2bd603ec8aa",
  "version": 1,
  "size": 225,
  "vsize": 225,
  "weight": 900,
  "locktime": 12488678,
  "vin": [
    {
      "txid": "6700acc162d9ad94afaa7b22142dcbadf958408d307dd339ff7ae120c11b5e4b",
      "vout": 0,
      "scriptSig": {
        "asm": "304402200ae5cbdaf67d87aa22afbc48c555e289246c6082fcaaa42200a49c11bd03bfaa0220034609578356d6e41739f8e4f58f5f88495c4f92ed9241cac0af9c79f62adc1e[ALL] 031fbae2bdd68a08ca44199ce09b4d2a8bb783a0ebd33d4e89a8ea37f0c47cf261",
        "hex": "47304402200ae5cbdaf67d87aa22afbc48c555e289246c6082fcaaa42200a49c11bd03bfaa0220034609578356d6e41739f8e4f58f5f88495c4f92ed9241cac0af9c79f62adc1e0121031fbae2bdd68a08ca44199ce09b4d2a8bb783a0ebd33d4e89a8ea37f0c47cf261"
      },
      "sequence": 4294967294
    }
  ],
  "vout": [
    {
      "value": 6373201.69795088,
      "n": 0,
      "scriptPubKey": {
        "asm": "OP_DUP OP_HASH160 5af8813280b8f77563cdf715c3c0a39517348ea7 OP_EQUALVERIFY OP_CHECKSIG",
        "hex": "76a9145af8813280b8f77563cdf715c3c0a39517348ea788ac",
        "reqSigs": 1,
        "type": "pubkeyhash",
        "addresses": [
          "DDS73vwYzbfwASCTnQtkDS9pUy31Ucemdt"
        ]
      }
    },
    {
      "value": 244.555,
      "n": 1,
      "scriptPubKey": {
        "asm": "OP_DUP OP_HASH160 a86074f72fa7a8fc60b6a6d43d2d81871495bb73 OP_EQUALVERIFY OP_CHECKSIG",
        "hex": "76a914a86074f72fa7a8fc60b6a6d43d2d81871495bb7388ac",
        "reqSigs": 1,
        "type": "pubkeyhash",
        "addresses": [
          "DLVPcRpAVgN4suQ4Jc4QRUTA9D9ggfH9Qf"
        ]
      }
    }
  ],
  "hex": "01000000014b5e1bc120e17aff39d37d308d4058f9adcb2d14227baaaf94add962c1ac0067000000006a47304402200ae5cbdaf67d87aa22afbc48c555e289246c6082fcaaa42200a49c11bd03bfaa0220034609578356d6e41739f8e4f58f5f88495c4f92ed9241cac0af9c79f62adc1e0121031fbae2bdd68a08ca44199ce09b4d2a8bb783a0ebd33d4e89a8ea37f0c47cf261feffffff02102e54aaa34302001976a9145af8813280b8f77563cdf715c3c0a39517348ea788ace050a9b1050000001976a914a86074f72fa7a8fc60b6a6d43d2d81871495bb7388ace68fbe00",
  "blockhash": "0000000000000001edfd4291d55086afc025f3a3e80ea0419ef6008ef8896f77",
  "confirmations": 2080797,
  "time": 1614245289,
  "blocktime": 1614245289
}